{
  "contractName": "Adoption",
  "abi": [
    {
      "inputs": [],
      "payable": false,
      "stateMutability": "nonpayable",
      "type": "constructor"
    },
    {
      "constant": true,
      "inputs": [
        {
          "internalType": "uint256",
          "name": "",
          "type": "uint256"
        }
      ],
      "name": "adopters",
      "outputs": [
        {
          "internalType": "address",
          "name": "",
          "type": "address"
        }
      ],
      "payable": false,
      "stateMutability": "view",
      "type": "function"
    },
    {
      "constant": true,
      "inputs": [],
      "name": "adoptionFee",
      "outputs": [
        {
          "internalType": "uint256",
          "name": "",
          "type": "uint256"
        }
      ],
      "payable": false,
      "stateMutability": "view",
      "type": "function"
    },
    {
      "constant": true,
      "inputs": [],
      "name": "owner",
      "outputs": [
        {
          "internalType": "address",
          "name": "",
          "type": "address"
        }
      ],
      "payable": false,
      "stateMutability": "view",
      "type": "function"
    },
    {
      "constant": false,
      "inputs": [
        {
          "internalType": "uint256",
          "name": "petId",
          "type": "uint256"
        }
      ],
      "name": "adopt",
      "outputs": [
        {
          "internalType": "uint256",
          "name": "",
          "type": "uint256"
        }
      ],
      "payable": true,
      "stateMutability": "payable",
      "type": "function"
    },
    {
      "constant": true,
      "inputs": [],
      "name": "getAdopters",
      "outputs": [
        {
          "internalType": "address[16]",
          "name": "",
          "type": "address[16]"
        }
      ],
      "payable": false,
      "stateMutability": "view",
      "type": "function"
    },
    {
      "constant": false,
      "inputs": [],
      "name": "withdraw",
      "outputs": [],
      "payable": false,
      "stateMutability": "nonpayable",
      "type": "function"
    }
  ],
  "bytecode": "0x6080604052662386f26fc1000060105534801561001b57600080fd5b5033601160006101000a81548173ffffffffffffffffffffffffffffffffffffffff021916908373ffffffffffffffffffffffffffffffffffffffff16021790555061068f8061006c6000396000f3fe6080604052600436106100555760003560e01c80633ccfd60b1461005a5780633de4eb171461007157806343ae80d3146100c45780638588b2c51461013f5780638da5cb5b14610181578063980fab78146101d8575b600080fd5b34801561006657600080fd5b5061006f610203565b005b34801561007d57600080fd5b50610086610314565b6040518082601060200280838360005b838110156100b1578082015181840152602081019050610096565b5050505090500191505060405180910390f35b3480156100d057600080fd5b506100fd600480360360208110156100e757600080fd5b8101908080359060200190929190505050610395565b604051808273ffffffffffffffffffffffffffffffffffffffff1673ffffffffffffffffffffffffffffffffffffffff16815260200191505060405180910390f35b61016b6004803603602081101561015557600080fd5b81019080803590602001909291905050506103c8565b6040518082815260200191505060405180910390f35b34801561018d57600080fd5b506101966105ea565b604051808273ffffffffffffffffffffffffffffffffffffffff1673ffffffffffffffffffffffffffffffffffffffff16815260200191505060405180910390f35b3480156101e457600080fd5b506101ed610610565b6040518082815260200191505060405180910390f35b601160009054906101000a900473ffffffffffffffffffffffffffffffffffffffff1673ffffffffffffffffffffffffffffffffffffffff163373ffffffffffffffffffffffffffffffffffffffff16146102a9576040517f08c379a000000000000000000000000000000000000000000000000000000000815260040180806020018281038252602181526020018061063a6021913960400191505060405180910390fd5b601160009054906101000a900473ffffffffffffffffffffffffffffffffffffffff1673ffffffffffffffffffffffffffffffffffffffff166108fc479081150290604051600060405180830381858888f19350505050158015610311573d6000803e3d6000fd5b50565b61031c610616565b600060108060200260405190810160405280929190826010801561038b576020028201915b8160009054906101000a900473ffffffffffffffffffffffffffffffffffffffff1673ffffffffffffffffffffffffffffffffffffffff1681526020019060010190808311610341575b5050505050905090565b600081601081106103a257fe5b016000915054906101000a900473ffffffffffffffffffffffffffffffffffffffff1681565b60008082101580156103db5750600f8211155b61044d576040517f08c379a000000000000000000000000000000000000000000000000000000000815260040180806020018281038252600e8152602001807f496e76616c69642070657420494400000000000000000000000000000000000081525060200191505060405180910390fd5b6010543410156104c5576040517f08c379a00000000000000000000000000000000000000000000000000000000081526004018080602001828103825260178152602001807f496e73756666696369656e742045746865722073656e7400000000000000000081525060200191505060405180910390fd5b600073ffffffffffffffffffffffffffffffffffffffff16600083601081106104ea57fe5b0160009054906101000a900473ffffffffffffffffffffffffffffffffffffffff1673ffffffffffffffffffffffffffffffffffffffff1614610595576040517f08c379a00000000000000000000000000000000000000000000000000000000081526004018080602001828103825260138152602001807f50657420616c72656164792061646f707465640000000000000000000000000081525060200191505060405180910390fd5b33600083601081106105a357fe5b0160006101000a81548173ffffffffffffffffffffffffffffffffffffffff021916908373ffffffffffffffffffffffffffffffffffffffff160217905550819050919050565b601160009054906101000a900473ffffffffffffffffffffffffffffffffffffffff1681565b60105481565b60405180610200016040528060109060208202803883398082019150509050509056fe4f6e6c7920746865206f776e65722063616e2077697468647261772066756e6473a265627a7a723158206072860b409af12428bb011020ce12061a8f08419f4bfee8d449e1904258365264736f6c63430005100032",
  "source": "pragma solidity ^0.5.0;\r\n\r\ncontract Adoption {\r\n    address[16] public adopters;\r\n    uint public adoptionFee = 0.01 ether; // Set the adoption fee\r\n\r\n    // Adopting a pet\r\n    function adopt(uint petId) public payable returns (uint) {\r\n        require(petId >= 0 && petId <= 15, \"Invalid pet ID\"); // Ensure valid pet ID\r\n        require(msg.value >= adoptionFee, \"Insufficient Ether sent\"); // Ensure payment meets or exceeds the fee\r\n        require(adopters[petId] == address(0), \"Pet already adopted\"); // Ensure pet is not already adopted\r\n\r\n        adopters[petId] = msg.sender;\r\n\r\n        return petId;\r\n    }\r\n\r\n    // Retrieving the adopters\r\n    function getAdopters() public view returns (address[16] memory) {\r\n        return adopters;\r\n    }\r\n\r\n    // Withdraw funds from the contract (for contract owner)\r\n    address public owner;\r\n\r\n    constructor() public {\r\n        owner = msg.sender;\r\n    }\r\n\r\n    function withdraw() public {\r\n        require(msg.sender == owner, \"Only the owner can withdraw funds\");\r\n        address(uint160(owner)).transfer(address(this).balance); // Explicitly cast to payable\r\n    }\r\n}\r\n",
  "sourcePath": "C:/Users/14810/Desktop/CSCD01/pet-shop-app/contracts/Adoption.sol",
  "compiler": {
    "name": "solc",
    "version": "0.5.16+commit.9c3226ce.Emscripten.clang"
  },
  "schemaVersion": "3.0.22",
  "updatedAt": "2024-11-26T00:08:35.969Z",
  "networkType": "ethereum",
  "devdoc": {
    "methods": {}
  },
  "userdoc": {
    "methods": {}
  }
}