{
  "contractName": "Adoption",
  "abi": [
    {
      "constant": true,
      "inputs": [
        {
          "internalType": "uint256",
          "name": "",
          "type": "uint256"
        }
      ],
      "name": "adopters",
      "outputs": [
        {
          "internalType": "address",
          "name": "",
          "type": "address"
        }
      ],
      "payable": false,
      "stateMutability": "view",
      "type": "function"
    },
    {
      "constant": true,
      "inputs": [
        {
          "internalType": "uint256",
          "name": "",
          "type": "uint256"
        },
        {
          "internalType": "uint256",
          "name": "",
          "type": "uint256"
        }
      ],
      "name": "petAdoptionHistory",
      "outputs": [
        {
          "internalType": "address",
          "name": "user",
          "type": "address"
        },
        {
          "internalType": "uint256",
          "name": "timestamp",
          "type": "uint256"
        },
        {
          "internalType": "uint256",
          "name": "action",
          "type": "uint256"
        }
      ],
      "payable": false,
      "stateMutability": "view",
      "type": "function"
    },
    {
      "constant": false,
      "inputs": [
        {
          "internalType": "uint256",
          "name": "petId",
          "type": "uint256"
        }
      ],
      "name": "adopt",
      "outputs": [
        {
          "internalType": "uint256",
          "name": "",
          "type": "uint256"
        }
      ],
      "payable": false,
      "stateMutability": "nonpayable",
      "type": "function"
    },
    {
      "constant": false,
      "inputs": [
        {
          "internalType": "uint256",
          "name": "petId",
          "type": "uint256"
        }
      ],
      "name": "returnPet",
      "outputs": [
        {
          "internalType": "uint256",
          "name": "",
          "type": "uint256"
        }
      ],
      "payable": false,
      "stateMutability": "nonpayable",
      "type": "function"
    },
    {
      "constant": true,
      "inputs": [],
      "name": "getAdopters",
      "outputs": [
        {
          "internalType": "address[16]",
          "name": "",
          "type": "address[16]"
        }
      ],
      "payable": false,
      "stateMutability": "view",
      "type": "function"
    },
    {
      "constant": true,
      "inputs": [
        {
          "internalType": "uint256",
          "name": "petId",
          "type": "uint256"
        }
      ],
      "name": "getPetAdoptionHistory",
      "outputs": [
        {
          "internalType": "address[]",
          "name": "users",
          "type": "address[]"
        },
        {
          "internalType": "uint256[]",
          "name": "timestamps",
          "type": "uint256[]"
        },
        {
          "internalType": "uint256[]",
          "name": "actions",
          "type": "uint256[]"
        }
      ],
      "payable": false,
      "stateMutability": "view",
      "type": "function"
    }
  ],
  "bytecode": "0x608060405234801561001057600080fd5b50610968806100206000396000f3fe608060405234801561001057600080fd5b50600436106100625760003560e01c80633de4eb171461006757806343ae80d3146100ad5780638588b2c51461011b578063a9dae8051461015d578063bdb92e8e14610270578063e4e97747146102b2575b600080fd5b61006f610338565b6040518082601060200280838360005b8381101561009a57808201518184015260208101905061007f565b5050505090500191505060405180910390f35b6100d9600480360360208110156100c357600080fd5b81019080803590602001909291905050506103b9565b604051808273ffffffffffffffffffffffffffffffffffffffff1673ffffffffffffffffffffffffffffffffffffffff16815260200191505060405180910390f35b6101476004803603602081101561013157600080fd5b81019080803590602001909291905050506103ec565b6040518082815260200191505060405180910390f35b6101896004803603602081101561017357600080fd5b810190808035906020019092919050505061052b565b60405180806020018060200180602001848103845287818151815260200191508051906020019060200280838360005b838110156101d45780820151818401526020810190506101b9565b50505050905001848103835286818151815260200191508051906020019060200280838360005b838110156102165780820151818401526020810190506101fb565b50505050905001848103825285818151815260200191508051906020019060200280838360005b8381101561025857808201518184015260208101905061023d565b50505050905001965050505050505060405180910390f35b61029c6004803603602081101561028657600080fd5b8101908080359060200190929190505050610736565b6040518082815260200191505060405180910390f35b6102e8600480360360408110156102c857600080fd5b810190808035906020019092919080359060200190929190505050610875565b604051808473ffffffffffffffffffffffffffffffffffffffff1673ffffffffffffffffffffffffffffffffffffffff168152602001838152602001828152602001935050505060405180910390f35b6103406108d9565b60006010806020026040519081016040528092919082601080156103af576020028201915b8160009054906101000a900473ffffffffffffffffffffffffffffffffffffffff1673ffffffffffffffffffffffffffffffffffffffff1681526020019060010190808311610365575b5050505050905090565b600081601081106103c657fe5b016000915054906101000a900473ffffffffffffffffffffffffffffffffffffffff1681565b60008082101580156103ff5750600f8211155b61040857600080fd5b336000836010811061041657fe5b0160006101000a81548173ffffffffffffffffffffffffffffffffffffffff021916908373ffffffffffffffffffffffffffffffffffffffff1602179055506010600083815260200190815260200160002060405180606001604052803373ffffffffffffffffffffffffffffffffffffffff16815260200142815260200160008152509080600181540180825580915050906001820390600052602060002090600302016000909192909190915060008201518160000160006101000a81548173ffffffffffffffffffffffffffffffffffffffff021916908373ffffffffffffffffffffffffffffffffffffffff1602179055506020820151816001015560408201518160020155505050819050919050565b60608060606000601060008681526020019081526020016000208054905090508060405190808252806020026020018201604052801561057a5781602001602082028038833980820191505090505b509350806040519080825280602002602001820160405280156105ac5781602001602082028038833980820191505090505b509250806040519080825280602002602001820160405280156105de5781602001602082028038833980820191505090505b50915060008090505b8181101561072d576105f76108fc565b60106000888152602001908152602001600020828154811061061557fe5b90600052602060002090600302016040518060600160405290816000820160009054906101000a900473ffffffffffffffffffffffffffffffffffffffff1673ffffffffffffffffffffffffffffffffffffffff1673ffffffffffffffffffffffffffffffffffffffff16815260200160018201548152602001600282015481525050905080600001518683815181106106ab57fe5b602002602001019073ffffffffffffffffffffffffffffffffffffffff16908173ffffffffffffffffffffffffffffffffffffffff168152505080602001518583815181106106f657fe5b602002602001018181525050806040015184838151811061071357fe5b6020026020010181815250505080806001019150506105e7565b50509193909250565b60008082101580156107495750600f8211155b61075257600080fd5b600080836010811061076057fe5b0160006101000a81548173ffffffffffffffffffffffffffffffffffffffff021916908373ffffffffffffffffffffffffffffffffffffffff1602179055506010600083815260200190815260200160002060405180606001604052803373ffffffffffffffffffffffffffffffffffffffff16815260200142815260200160018152509080600181540180825580915050906001820390600052602060002090600302016000909192909190915060008201518160000160006101000a81548173ffffffffffffffffffffffffffffffffffffffff021916908373ffffffffffffffffffffffffffffffffffffffff1602179055506020820151816001015560408201518160020155505050819050919050565b6010602052816000526040600020818154811061088e57fe5b9060005260206000209060030201600091509150508060000160009054906101000a900473ffffffffffffffffffffffffffffffffffffffff16908060010154908060020154905083565b604051806102000160405280601090602082028038833980820191505090505090565b6040518060600160405280600073ffffffffffffffffffffffffffffffffffffffff1681526020016000815260200160008152509056fea265627a7a72315820c4f0f04c024c091b0001b2a596e56ecca67021855dbd5fa94133f308bec94c4164736f6c63430005100032",
  "source": "pragma solidity ^0.5.0;\r\n\r\ncontract Adoption {\r\n    address[16] public adopters;\r\n    struct AdoptionDetails {\r\n        address user;\r\n        uint256 timestamp;\r\n        uint action; // 0 for adoption, 1 for return\r\n    }\r\n    mapping(uint => AdoptionDetails[]) public petAdoptionHistory;\r\n\r\n    // Adopting a pet\r\n    function adopt(uint petId) public returns (uint) {\r\n        require(petId >= 0 && petId <= 15);\r\n\r\n        adopters[petId] = msg.sender;\r\n        petAdoptionHistory[petId].push(AdoptionDetails({\r\n            user: msg.sender,\r\n            timestamp: block.timestamp,\r\n            action: 0 // 0 represents adoption\r\n        }));\r\n\r\n        return petId;\r\n    }\r\n\r\n    // Returning a pet\r\n    function returnPet(uint petId) public returns (uint) {\r\n        require(petId >= 0 && petId <= 15);\r\n\r\n        adopters[petId] = address(0);\r\n        petAdoptionHistory[petId].push(AdoptionDetails({\r\n            user: msg.sender,\r\n            timestamp: block.timestamp,\r\n            action: 1 // 1 represents return\r\n        }));\r\n\r\n        return petId;\r\n    }\r\n\r\n    // Retrieving the adopters\r\n    function getAdopters() public view returns (address[16] memory) {\r\n        return adopters;\r\n    }\r\n\r\n    // Get adoption history of a pet\r\n    function getPetAdoptionHistory(uint petId) \r\n            public \r\n            view \r\n            returns (\r\n                address[] memory users, \r\n                uint256[] memory timestamps,\r\n                uint[] memory actions\r\n            ) \r\n        {\r\n            uint length = petAdoptionHistory[petId].length;\r\n            users = new address[](length);\r\n            timestamps = new uint256[](length);\r\n            actions = new uint[](length);\r\n\r\n            for (uint i = 0; i < length; i++) {\r\n                AdoptionDetails memory details = petAdoptionHistory[petId][i];\r\n                users[i] = details.user;\r\n                timestamps[i] = details.timestamp;\r\n                actions[i] = details.action;\r\n            }\r\n        }    \r\n}\r\n\r\n\r\ncontract SendMeEther {\r\n    \r\n    string public functionCalled;\r\n    \r\n    //constructor of the contract SendMeEther\r\n    constructor() public {\r\n\tfunctionCalled = \"constructor\";\r\n    }\r\n\r\n    //function allowing an ether payment to the contract address\r\n    function receiveEther() external payable {\r\n\tfunctionCalled = \"receiveEther\";\r\n    }\r\n\r\n    //fallback function allowing an ether payment to the contract address \r\n    function() external payable {\r\n\tfunctionCalled = \"fallback\";\r\n    }\r\n\r\n} \r\n\r\n\r\ncontract LeaveComment {\r\n    \r\n    string public functionCalled;\r\n    \r\n    //constructor of the contract LeaveComment\r\n    constructor() public {\r\n\tfunctionCalled = \"constructor\";\r\n    }\r\n\r\n    //function allowing an ether payment to the contract address\r\n    function leaveComment() external payable {\r\n\tfunctionCalled = \"leaveComment\";\r\n    }\r\n\r\n    //fallback function allowing an ether payment to the contract address \r\n    function() external payable {\r\n\tfunctionCalled = \"fallback\";\r\n    }\r\n\r\n} ",
  "sourcePath": "C:/Users/14810/Desktop/CSCD01/pet-shop-app/contracts/Adoption.sol",
  "compiler": {
    "name": "solc",
    "version": "0.5.16+commit.9c3226ce.Emscripten.clang"
  },
  "schemaVersion": "3.0.22",
  "updatedAt": "2024-12-13T18:02:04.327Z",
  "networkType": "ethereum",
  "devdoc": {
    "methods": {}
  },
  "userdoc": {
    "methods": {}
  }
}