{
  "contractName": "Adoption",
  "abi": [
    {
      "constant": true,
      "inputs": [
        {
          "internalType": "uint256",
          "name": "",
          "type": "uint256"
        }
      ],
      "name": "adopters",
      "outputs": [
        {
          "internalType": "address",
          "name": "",
          "type": "address"
        }
      ],
      "payable": false,
      "stateMutability": "view",
      "type": "function"
    },
    {
      "constant": true,
      "inputs": [
        {
          "internalType": "uint256",
          "name": "",
          "type": "uint256"
        },
        {
          "internalType": "uint256",
          "name": "",
          "type": "uint256"
        }
      ],
      "name": "petAdoptionHistory",
      "outputs": [
        {
          "internalType": "address",
          "name": "user",
          "type": "address"
        },
        {
          "internalType": "uint256",
          "name": "timestamp",
          "type": "uint256"
        },
        {
          "internalType": "address",
          "name": "transactionOrigin",
          "type": "address"
        },
        {
          "internalType": "uint256",
          "name": "action",
          "type": "uint256"
        }
      ],
      "payable": false,
      "stateMutability": "view",
      "type": "function"
    },
    {
      "constant": false,
      "inputs": [
        {
          "internalType": "uint256",
          "name": "petId",
          "type": "uint256"
        }
      ],
      "name": "adopt",
      "outputs": [
        {
          "internalType": "uint256",
          "name": "",
          "type": "uint256"
        }
      ],
      "payable": false,
      "stateMutability": "nonpayable",
      "type": "function"
    },
    {
      "constant": false,
      "inputs": [
        {
          "internalType": "uint256",
          "name": "petId",
          "type": "uint256"
        }
      ],
      "name": "returnPet",
      "outputs": [
        {
          "internalType": "uint256",
          "name": "",
          "type": "uint256"
        }
      ],
      "payable": false,
      "stateMutability": "nonpayable",
      "type": "function"
    },
    {
      "constant": true,
      "inputs": [],
      "name": "getAdopters",
      "outputs": [
        {
          "internalType": "address[16]",
          "name": "",
          "type": "address[16]"
        }
      ],
      "payable": false,
      "stateMutability": "view",
      "type": "function"
    }
  ],
  "bytecode": "0x608060405234801561001057600080fd5b50610727806100206000396000f3fe608060405234801561001057600080fd5b50600436106100575760003560e01c80633de4eb171461005c57806343ae80d3146100a25780638588b2c514610110578063bdb92e8e14610152578063e4e9774714610194575b600080fd5b61006461024d565b6040518082601060200280838360005b8381101561008f578082015181840152602081019050610074565b5050505090500191505060405180910390f35b6100ce600480360360208110156100b857600080fd5b81019080803590602001909291905050506102ce565b604051808273ffffffffffffffffffffffffffffffffffffffff1673ffffffffffffffffffffffffffffffffffffffff16815260200191505060405180910390f35b61013c6004803603602081101561012657600080fd5b8101908080359060200190929190505050610301565b6040518082815260200191505060405180910390f35b61017e6004803603602081101561016857600080fd5b81019080803590602001909291905050506104a3565b6040518082815260200191505060405180910390f35b6101ca600480360360408110156101aa57600080fd5b810190808035906020019092919080359060200190929190505050610645565b604051808573ffffffffffffffffffffffffffffffffffffffff1673ffffffffffffffffffffffffffffffffffffffff1681526020018481526020018373ffffffffffffffffffffffffffffffffffffffff1673ffffffffffffffffffffffffffffffffffffffff16815260200182815260200194505050505060405180910390f35b6102556106cf565b60006010806020026040519081016040528092919082601080156102c4576020028201915b8160009054906101000a900473ffffffffffffffffffffffffffffffffffffffff1673ffffffffffffffffffffffffffffffffffffffff168152602001906001019080831161027a575b5050505050905090565b600081601081106102db57fe5b016000915054906101000a900473ffffffffffffffffffffffffffffffffffffffff1681565b60008082101580156103145750600f8211155b61031d57600080fd5b336000836010811061032b57fe5b0160006101000a81548173ffffffffffffffffffffffffffffffffffffffff021916908373ffffffffffffffffffffffffffffffffffffffff1602179055506010600083815260200190815260200160002060405180608001604052803373ffffffffffffffffffffffffffffffffffffffff1681526020014281526020013273ffffffffffffffffffffffffffffffffffffffff16815260200160008152509080600181540180825580915050906001820390600052602060002090600402016000909192909190915060008201518160000160006101000a81548173ffffffffffffffffffffffffffffffffffffffff021916908373ffffffffffffffffffffffffffffffffffffffff1602179055506020820151816001015560408201518160020160006101000a81548173ffffffffffffffffffffffffffffffffffffffff021916908373ffffffffffffffffffffffffffffffffffffffff16021790555060608201518160030155505050819050919050565b60008082101580156104b65750600f8211155b6104bf57600080fd5b60008083601081106104cd57fe5b0160006101000a81548173ffffffffffffffffffffffffffffffffffffffff021916908373ffffffffffffffffffffffffffffffffffffffff1602179055506010600083815260200190815260200160002060405180608001604052803373ffffffffffffffffffffffffffffffffffffffff1681526020014281526020013273ffffffffffffffffffffffffffffffffffffffff16815260200160018152509080600181540180825580915050906001820390600052602060002090600402016000909192909190915060008201518160000160006101000a81548173ffffffffffffffffffffffffffffffffffffffff021916908373ffffffffffffffffffffffffffffffffffffffff1602179055506020820151816001015560408201518160020160006101000a81548173ffffffffffffffffffffffffffffffffffffffff021916908373ffffffffffffffffffffffffffffffffffffffff16021790555060608201518160030155505050819050919050565b6010602052816000526040600020818154811061065e57fe5b9060005260206000209060040201600091509150508060000160009054906101000a900473ffffffffffffffffffffffffffffffffffffffff16908060010154908060020160009054906101000a900473ffffffffffffffffffffffffffffffffffffffff16908060030154905084565b60405180610200016040528060109060208202803883398082019150509050509056fea265627a7a7231582030178f51e3f8c0a3f739578caa6fb93430e067f9208b96fd46217c0fcc66256f64736f6c63430005100032",
  "source": "pragma solidity ^0.5.0;\r\n\r\ncontract Adoption {\r\n    address[16] public adopters;\r\n    struct AdoptionDetails {\r\n        address user;\r\n        uint256 timestamp;\r\n        address transactionOrigin; \r\n        uint action;\r\n    }\r\n\r\n    mapping(uint => AdoptionDetails[]) public petAdoptionHistory;\r\n\r\n    // Adopting a pet\r\n    function adopt(uint petId) public returns (uint) {\r\n        require(petId >= 0 && petId <= 15);\r\n\r\n        adopters[petId] = msg.sender;\r\n        petAdoptionHistory[petId].push(AdoptionDetails({\r\n            user: msg.sender,\r\n            timestamp: block.timestamp,\r\n            transactionOrigin: tx.origin,\r\n            action: 0\r\n        }));\r\n\r\n        return petId;\r\n    }\r\n\r\n    function returnPet(uint petId) public returns (uint) {\r\n        require(petId >= 0 && petId <= 15);\r\n\r\n        adopters[petId] = address(0);\r\n        petAdoptionHistory[petId].push(AdoptionDetails({\r\n            user: msg.sender,\r\n            timestamp: block.timestamp,\r\n            transactionOrigin: tx.origin,\r\n            action: 1\r\n        }));\r\n\r\n        return petId;\r\n    }\r\n\r\n    // Retrieving the adopters\r\n    function getAdopters() public view returns (address[16] memory) {\r\n        return adopters;\r\n    }\r\n} \r\n\r\n\r\ncontract SendMeEther {\r\n    \r\n    string public functionCalled;\r\n    \r\n    //constructor of the contract SendMeEther\r\n    constructor() public {\r\n\tfunctionCalled = \"constructor\";\r\n    }\r\n\r\n    //function allowing an ether payment to the contract address\r\n    function receiveEther() external payable {\r\n\tfunctionCalled = \"receiveEther\";\r\n    }\r\n\r\n    //fallback function allowing an ether payment to the contract address \r\n    function() external payable {\r\n\tfunctionCalled = \"fallback\";\r\n    }\r\n\r\n} \r\n\r\n\r\ncontract LeaveComment {\r\n    \r\n    string public functionCalled;\r\n    \r\n    //constructor of the contract LeaveComment\r\n    constructor() public {\r\n\tfunctionCalled = \"constructor\";\r\n    }\r\n\r\n    //function allowing an ether payment to the contract address\r\n    function leaveComment() external payable {\r\n\tfunctionCalled = \"leaveComment\";\r\n    }\r\n\r\n    //fallback function allowing an ether payment to the contract address \r\n    function() external payable {\r\n\tfunctionCalled = \"fallback\";\r\n    }\r\n\r\n} ",
  "sourcePath": "C:/Users/14810/Desktop/CSCD01/pet-shop-app/contracts/Adoption.sol",
  "compiler": {
    "name": "solc",
    "version": "0.5.16+commit.9c3226ce.Emscripten.clang"
  },
  "schemaVersion": "3.0.22",
  "updatedAt": "2024-12-13T02:23:16.453Z",
  "networkType": "ethereum",
  "devdoc": {
    "methods": {}
  },
  "userdoc": {
    "methods": {}
  }
}