{
  "contractName": "LeaveComment",
  "abi": [
    {
      "inputs": [],
      "payable": false,
      "stateMutability": "nonpayable",
      "type": "constructor"
    },
    {
      "payable": true,
      "stateMutability": "payable",
      "type": "fallback"
    },
    {
      "constant": true,
      "inputs": [],
      "name": "functionCalled",
      "outputs": [
        {
          "internalType": "string",
          "name": "",
          "type": "string"
        }
      ],
      "payable": false,
      "stateMutability": "view",
      "type": "function"
    },
    {
      "constant": false,
      "inputs": [],
      "name": "leaveComment",
      "outputs": [],
      "payable": true,
      "stateMutability": "payable",
      "type": "function"
    }
  ],
  "bytecode": "0x608060405234801561001057600080fd5b506040518060400160405280600b81526020017f636f6e7374727563746f720000000000000000000000000000000000000000008152506000908051906020019061005c929190610062565b50610107565b828054600181600116156101000203166002900490600052602060002090601f016020900481019282601f106100a357805160ff19168380011785556100d1565b828001600101855582156100d1579182015b828111156100d05782518255916020019190600101906100b5565b5b5090506100de91906100e2565b5090565b61010491905b808211156101005760008160009055506001016100e8565b5090565b90565b6102d7806101166000396000f3fe6080604052600436106100295760003560e01c8063cc81afc814610077578063e5eb0ae314610107575b6040518060400160405280600881526020017f66616c6c6261636b000000000000000000000000000000000000000000000000815250600090805190602001906100749291906101fd565b50005b34801561008357600080fd5b5061008c610111565b6040518080602001828103825283818151815260200191508051906020019080838360005b838110156100cc5780820151818401526020810190506100b1565b50505050905090810190601f1680156100f95780820380516001836020036101000a031916815260200191505b509250505060405180910390f35b61010f6101af565b005b60008054600181600116156101000203166002900480601f0160208091040260200160405190810160405280929190818152602001828054600181600116156101000203166002900480156101a75780601f1061017c576101008083540402835291602001916101a7565b820191906000526020600020905b81548152906001019060200180831161018a57829003601f168201915b505050505081565b6040518060400160405280600c81526020017f6c65617665436f6d6d656e740000000000000000000000000000000000000000815250600090805190602001906101fa9291906101fd565b50565b828054600181600116156101000203166002900490600052602060002090601f016020900481019282601f1061023e57805160ff191683800117855561026c565b8280016001018555821561026c579182015b8281111561026b578251825591602001919060010190610250565b5b509050610279919061027d565b5090565b61029f91905b8082111561029b576000816000905550600101610283565b5090565b9056fea265627a7a72315820e6b9f872d6c307e9936e0869cfaab4731189fa7794e466fb39282c66363004af64736f6c63430005100032",
  "source": "pragma solidity ^0.5.0;\r\n\r\ncontract Adoption {\r\n    address[16] public adopters;\r\n    struct AdoptionDetails {\r\n        address user;\r\n        uint256 timestamp;\r\n        uint action; // 0 for adoption, 1 for return\r\n    }\r\n    mapping(uint => AdoptionDetails[]) public petAdoptionHistory;\r\n\r\n    // Adopting a pet\r\n    function adopt(uint petId) public returns (uint) {\r\n        require(petId >= 0 && petId <= 15);\r\n\r\n        adopters[petId] = msg.sender;\r\n        petAdoptionHistory[petId].push(AdoptionDetails({\r\n            user: msg.sender,\r\n            timestamp: block.timestamp,\r\n            action: 0 // 0 represents adoption\r\n        }));\r\n\r\n        return petId;\r\n    }\r\n\r\n    // Returning a pet\r\n    function returnPet(uint petId) public returns (uint) {\r\n        require(petId >= 0 && petId <= 15);\r\n\r\n        adopters[petId] = address(0);\r\n        petAdoptionHistory[petId].push(AdoptionDetails({\r\n            user: msg.sender,\r\n            timestamp: block.timestamp,\r\n            action: 1 // 1 represents return\r\n        }));\r\n\r\n        return petId;\r\n    }\r\n\r\n    // Retrieving the adopters\r\n    function getAdopters() public view returns (address[16] memory) {\r\n        return adopters;\r\n    }\r\n\r\n    // Get adoption history of a pet\r\n    function getPetAdoptionHistory(uint petId) \r\n            public \r\n            view \r\n            returns (\r\n                address[] memory users, \r\n                uint256[] memory timestamps,\r\n                uint[] memory actions\r\n            ) \r\n        {\r\n            uint length = petAdoptionHistory[petId].length;\r\n            users = new address[](length);\r\n            timestamps = new uint256[](length);\r\n            actions = new uint[](length);\r\n\r\n            for (uint i = 0; i < length; i++) {\r\n                AdoptionDetails memory details = petAdoptionHistory[petId][i];\r\n                users[i] = details.user;\r\n                timestamps[i] = details.timestamp;\r\n                actions[i] = details.action;\r\n            }\r\n        }    \r\n}\r\n\r\n\r\ncontract SendMeEther {\r\n    \r\n    string public functionCalled;\r\n    \r\n    //constructor of the contract SendMeEther\r\n    constructor() public {\r\n\tfunctionCalled = \"constructor\";\r\n    }\r\n\r\n    //function allowing an ether payment to the contract address\r\n    function receiveEther() external payable {\r\n\tfunctionCalled = \"receiveEther\";\r\n    }\r\n\r\n    //fallback function allowing an ether payment to the contract address \r\n    function() external payable {\r\n\tfunctionCalled = \"fallback\";\r\n    }\r\n\r\n} \r\n\r\n\r\ncontract LeaveComment {\r\n    \r\n    string public functionCalled;\r\n    \r\n    //constructor of the contract LeaveComment\r\n    constructor() public {\r\n\tfunctionCalled = \"constructor\";\r\n    }\r\n\r\n    //function allowing an ether payment to the contract address\r\n    function leaveComment() external payable {\r\n\tfunctionCalled = \"leaveComment\";\r\n    }\r\n\r\n    //fallback function allowing an ether payment to the contract address \r\n    function() external payable {\r\n\tfunctionCalled = \"fallback\";\r\n    }\r\n\r\n} ",
  "sourcePath": "C:/Users/14810/Desktop/CSCD01/pet-shop-app/contracts/Adoption.sol",
  "compiler": {
    "name": "solc",
    "version": "0.5.16+commit.9c3226ce.Emscripten.clang"
  },
  "schemaVersion": "3.0.22",
  "updatedAt": "2024-12-13T18:02:04.333Z",
  "networkType": "ethereum",
  "devdoc": {
    "methods": {}
  },
  "userdoc": {
    "methods": {}
  }
}